:1000000012C02CC02BC02AC029C028C027C026C0BF
:1000100025C0BFC023C07AC19CC120C01FC01EC064
:100020001DC01CC01BC011241FBECFE5D4E0DEBF25
:10003000CDBF10E0A0E6B0E0E8ECF8E002C005902B
:100040000D92AC36B107D9F711E0ACE6B0E001C0D3
:100050001D92A13BB107E1F716D234C4D1CF8D3048
:1000600011F08A3049F580916C00843619F4809142
:100070006D0020D180916C008336B9F440E150E0EE
:1000800060E070E08DE690E03FD29B01AB01BC01E7
:10009000CB01AA27BB27452F562F672F77278093A1
:1000A0006100409364002093670010928D001092CD
:1000B0008C0010926C00089520918C0030918D007E
:1000C0002E31310570F4F901E459FF4F80832F5F21
:1000D0003F4FF901E459FF4F108230938D00209378
:1000E0008C00089580E090E0FC01EE0FFF1FE80F08
:1000F000F91FE05AFF4F2281222321F035B32081DE
:10010000232B25BB01968330910571F730E016C093
:10011000FC01EE0FFF1FE80FF91FE05AFF4F22818D
:10012000321305C045B320812095242325BB0196B9
:100130008330910569F73F5F3F3F19F080E090E021
:10014000E7CF0895E0E6F0E08281823020F095B3B9
:100150008081892B85BB90E08281981305C025B3EF
:1001600080818095822385BB9F5F9F3FA9F795B3D0
:1001700080818095892385BB339680E0E936F80736
:1001800019F70895809361006093640040936700BD
:1001900008951F920F920FB60F9211242F933F9341
:1001A0004F935F936F937F938F939F93AF93BF937F
:1001B000EF93FF93000089EB82BF979A85E038D1D7
:1001C0009C0180918E00982F9F5F90938E008111EB
:1001D00018C08091690090916A00821793072CF4EF
:1001E000019690936A0080936900809169009091D4
:1001F0006A00281739072CF4019790936A008093BE
:10020000690061E04091690050916A00421753070C
:100210000CF060E0362F3295307F20E080918F0027
:100220009091900096958795822B932B90939000B8
:1002300080938F008627817020919100E22FF0E05B
:10024000EE56FF4F80832F5F2C3008F020E0909116
:10025000A800980FE22FF0E0EE56FF4F8081981B28
:100260009093A80020939100892F880F880F880F02
:100270008058FED08091A800863010F4929A01C078
:1002800092989798FF91EF91BF91AF919F918F9125
:100290007F916F915F914F913F912F910F900FBE82
:1002A0000F901F90189590BD89B988E98AB986E8A2
:1002B00080BD089590912B019F5F9F7720912C0125
:1002C0002917E1F3E0912B01F0E0E555FF4F808322
:1002D00090932B01559A80E090E008959091AD01A4
:1002E0008091AE01981771F0E091AE01F0E0E35D0E
:1002F000FE4F20818091AE018F5F8F778093AE019A
:1003000030E002C02FEF3FEFC90108951F920F9216
:100310000FB60F9211248F939F93EF93FF938091C9
:10032000AD018F5F8F779091AE01981749F0E09102
:10033000AD01F0E09CB1E35DFE4F90838093AD0191
:10034000FF91EF919F918F910F900FBE0F901F9093
:1003500018951F920F920FB60F9211248F939F93AF
:10036000EF93FF93E0912C01F0E0E555FF4F808182
:100370008CB980912C018F5F8F7780932C019091A5
:100380002C0180912B01981301C05598FF91EF919A
:100390009F918F910F900FBE0F901F901895EF9225
:1003A000FF920F931F93CF93DF93CDB7DEB72897BC
:1003B0000FB6F894DEBF0FBECDBF39892A89CE01B2
:1003C000439698878F83032F122FEE24E394F12C0A
:1003D000EC0EFD1E19C08532A1F4EF81F885CF0126
:1003E000029698878F834AE050E0B701808191811F
:1003F000A5D1FF92EF92D3DF0F5F1F4F0F900F90A9
:1004000001C058DF0F5F1F4FF80180818111E3CFDA
:1004100028960FB6F894DEBF0FBECDBFDF91CF9107
:100420001F910F91FF90EF90089584E886B9089589
:1004300087B98091A9009091AA00892B11F0349B73
:10044000FECF24B135B1369A81E090E09093AA00B6
:100450008093A900C901089582EA8FBD89E18EBD0C
:1004600080E290E097BD86BD87B3866087BB089524
:10047000282F26952695269530E03BBD2ABD90E095
:1004800099BD88BD089580E493E00DDF84B3876053
:1004900084BBB89A81B3846881BBC7DFDDDF82E0AB
:1004A00083BF89B7816089BF78948EE180936100B2
:1004B000809364008093670020E01BC0822F90E04F
:1004C000FC01EE0FFF1FE80FF91FE05AFF4F84E019
:1004D00032819181391718F492819F5F9283328122
:1004E0009181931718F4928191509283815081F7F2
:1004F0002F5F233018F3F6DDF1DE8F3F2FEF9207E9
:1005000009F0ADDD20E0DACFA0E0B0E0E9E8F2E00C
:100510008EC12B018A016115710519F0FB018083E1
:1005200091830115110539F09801225031092332C8
:10053000310508F0E3C07C01F701C1917F013F0163
:100540008C2F90E0F3D0892BB9F7CD3229F4F70145
:10055000C1913F01D1E006C0CB3219F4F701C1913E
:100560003F01D0E00115110509F4D6C00031110595
:1005700081F4CEC0F3018081883719F0883509F005
:10058000C1C0F301C181F2E06F0E711CD26000E1C5
:1005900010E008301105D9F024F402301105F9F407
:1005A00007C00A30110551F000311105C1F424C013
:1005B000C12CD12CE12C30E4F32E23C00AE010E052
:1005C0002CECC22EDC2CEC2C2CE0F22E1AC008E015
:1005D00010E0C12CD12CE12C90E1F92E12C0980131
:1005E000442737FD4095542F60E070E080E090E8AC
:1005F000FAD069017A0105C0C12CD12CE12C88E028
:10060000F82E40E060E070E0CB014801AA2497FC9E
:10061000A094BA2CEC2FE053EA3060F02C2F215438
:100620002A3110F4E75006C02C2F21562A3120F52C
:10063000EC2FE7552E2F30E020173107ECF447FD63
:1006400017C0C616D706E806F90678F09B01AC017C
:10065000C501B401A5D06E0F711D811D911D6130C2
:100660007105810520E8920710F04FEF01C041E0CD
:10067000F301C1913F01CECF4114510491F04423C5
:1006800039F0F1E06F1A7108F2017182608209C0DD
:10069000D1FF1BC0F2E06F1A7108F2017182608213
:1006A00014C047FF12C0D0FF05C060E070E080E0DA
:1006B00090E804C06FEF7FEF8FEF9FE722E230E01A
:1006C0003093B0012093AF0116C0D0FF08C09095C1
:1006D0008095709561957F4F8F4F9F4F0CC097FF0E
:1006E0000AC082E290E09093B0018093AF016FEF77
:1006F0007FEF8FEF9FE76B017C0112C0C12CD12CE3
:1007000076010EC0C0E30115110509F460CF41CF99
:10071000C03309F03ECF2ECFC03309F04FCF2ACFE0
:10072000B601C701CDB7DEB7E0E19DC0911125C08C
:10073000803219F089508550D0F70895FB019F0150
:10074000E8944230BCF04532ACF44A3029F497FBCF
:100750001EF4909581959F4F642F772730D0805D50
:100760008A330CF0895D8193CB010097A9F716F4C9
:100770005DE251931082C90103C09927882708952B
:10078000DC01FC01672F71917723E1F7329704C0F8
:100790007C916D9370836291AE17BF07C8F3089583
:1007A000DB018F939F9378D0BF91AF91A29F800D73
:1007B000911DA39F900DB29F900D11240895AA1B27
:1007C000BB1B51E107C0AA1FBB1FA617B70710F03C
:1007D000A61BB70B881F991F5A95A9F7809590956E
:1007E000BC01CD010895A1E21A2EAA1BBB1BFD017D
:1007F0000DC0AA1FBB1FEE1FFF1FA217B307E40700
:10080000F50720F0A21BB30BE40BF50B661F771F57
:10081000881F991F1A9469F7609570958095909537
:100820009B01AC01BD01CF0108952F923F924F92E1
:100830005F926F927F928F929F92AF92BF92CF9270
:10084000DF92EF92FF920F931F93CF93DF93CDB779
:10085000DEB7CA1BDB0B0FB6F894DEBF0FBECDBFF1
:1008600009942A88398848885F846E847D848C84C2
:100870009B84AA84B984C884DF80EE80FD800C81CB
:100880001B81AA81B981CE0FD11D0FB6F894DEBFAE
:100890000FBECDBFED01089509D0A59F900DB49F67
:1008A000900DA49F800D911D11240895A29FB00169
:1008B000B39FC001A39F01D0B29F700D811D112471
:0808C000911D0895F894FFCF8B
:0C08C8000400000200000100000002001B
:00000001FF
